:020000040000FA
:060000000A128A110E280D
:10000800FE00030E83120313A6000A08A7000A12B3
:100018008A1198280A128A111128FB01FC018312FF
:100028000313AC01AD01AE01AF01B001B101830111
:100038000A128A111F2883160313850186010614E4
:100048008614870188018316031788010130890007
:100058008B018B178B150B108B160B118316031343
:100068008101011563308312031381008316031382
:100078009601161496140C17831203130C171F08F5
:100088003F3940389F001F119F111F129F169F1064
:100098001F14831603139F131F129F128312031337
:1000A80085018601870188018814B0010D3083120B
:1000B8000313AB00FB30AA00AA0B6028AB0B602827
:1000C800831203139F140D3083120313AB00FB300C
:1000D800AA00AA0B6D28AB0B6D28831203133103FA
:1000E800031D772878289228081C7B287C288628D6
:1000F8002F08A9002E08A8000A128A1191210A12B5
:100108008A118F282D08A9002C08A8000A128A1124
:1001180091210A128A1183120313B1013008850054
:100128005A280A128A110E288B138B118B120B1D59
:100138009E289F28A32863308100B101B10A0B1CB7
:10014800A628A728AF28861CAA28AB28AF280130E4
:10015800A4002408B0070B1CB228B328B928061C31
:10016800B628B728B9280130B0020C1FBC28BD2812
:10017800F6281E08A400A5012408F0002508F100AF
:100188000F30F2000030F3000A128A116C210A12B3
:100198008A11710883120313AF007008AE00103083
:1001A800F6000030F7001E08A400A5012408F0009E
:1001B8002508F100F030F2000030F3000A128A112D
:1001C8006C210A128A117108F9007008F8000A12E5
:1001D8008A1103210A128A11770883120313AD00CA
:1001E8007608AC008B178B150B108B160B110C13A4
:1001F80027088A00260E8300FE0E7E0E0900831251
:100208000313A101F71F09290A291129F609F7097A
:10021800F60A0319F70AA101A10AF91F14291529D9
:100228001E29F809F909F80A0319F90A0130FA0030
:100238007A08A106A201A3017608770403192529E3
:1002480026295D29A001A00A342901300310F60DE2
:10025800F70DFF3E031D2A290130FA007A08A0078E
:10026800F71F37293829292901300310A20DA30DBA
:10027800FF3E031D392977087902031D45297608B1
:100288007802031C4829492950297608F80277087A
:10029800031CF903F902221401300310F70CF60CC1
:1002A800FF3E031D51290130A002031D5C295D2971
:1002B800382921080319612962296729A209A30994
:1002C800A20A0319A30A2308F7002208F600080067
:1002D800F401F501701C7129722978297208F40754
:1002E8000318F50A7308F50701300310F20DF30D32
:1002F800FF3E031D792901300310F10CF00CFF3E7D
:10030800031D802970087104031D8B298C296E290F
:100318007508F1007408F000080083120313881CA4
:1003280096299729A429881008102808013E8400D6
:100338000A128A11B1210A128A1187000814B029F9
:10034800081088102808023E84000A128A11B12178
:100358000A128A1187008814080001308A000408EC
:10036800840A820700343F3406345B344F346634E1
:100378006D347D3407347F346F3477347C343934CA
:060388005E34793471348B
:04400E00D4E0FFFFFC
:00000001FF
