:020000040000FA
:060000000A128A110E280D
:10000800FE00030E83120313A6000A08A7000A12B3
:100018008A118C280A128A111128FB01FC0183120B
:100028000313AE01AF01B001B101B201B301830105
:100038000A128A111F2883160313850186010614E4
:1000480086148701880183160317880189018B01AB
:100058008B178B150B108B160B118316031381014D
:10006800011563308312031381008316031396016D
:1000780016149614831203138501860187018801DB
:100088008814B2010B174030831603138C008312B7
:1000980003138C01831603170914613083120313A9
:1000A8009F00831603139F010D3083120313AD00C5
:1000B800FB30AC00AC0B5E28AD0B5E28831203133B
:1000C8009F140D3083120313AD00FB30AC00AC0B52
:1000D8006B28AD0B6B28831203133303031D75289C
:1000E800762886283108A9003008A8002F08AB0018
:1000F8002E08AA000A128A1187210A128A1183126D
:100108000313B3013208850058280A128A110E28F1
:100118008B138B118B120B130B1D93289428982883
:1001280063308100B301B30A0B1C9B289C28A428C8
:10013800861C9F28A028A4280130A4002408B20700
:100148000B1CA728A828AE28061CAB28AC28AE286C
:100158000130B2020C1FB128B228EB281E08A400F7
:10016800A5012408F0002508F1000F30F200003046
:10017800F3000A128A1162210A128A117108831285
:100188000313B1007008B0001030F6000030F7001B
:100198001E08A400A5012408F0002508F100F0308D
:1001A800F2000030F3000A128A1162210A128A1141
:1001B8007108F9007008F8000A128A11F9200A1269
:1001C8008A11770883120313AF007608AE008B17E5
:1001D8008B150B108B160B110B170C1327088A00A5
:1001E800260E8300FE0E7E0E090083120313A10162
:1001F800F71FFF2800290729F609F709F60A031946
:10020800F70AA101A10AF91F0A290B291429F809DB
:10021800F909F80A0319F90A0130FA007A08A1065F
:10022800A201A3017608770403191B291C29532965
:10023800A001A00A2A2901300310F60DF70DFF3E90
:10024800031D20290130FA007A08A007F71F2D297D
:100258002E291F2901300310A20DA30DFF3E031DF7
:100268002F2977087902031D3B2976087802031C99
:100278003E293F2946297608F8027708031CF90326
:10028800F902221401300310F70CF60CFF3E031D8F
:1002980047290130A002031D522953292E2921087C
:1002A8000319572958295D29A209A309A20A031984
:1002B800A30A2308F7002208F6000800F401F50154
:1002C800701C672968296E297208F4070318F50A53
:1002D8007308F50701300310F20DF30DFF3E031DFF
:1002E8006F2901300310F10CF00CFF3E031D762935
:1002F80070087104031D8129822964297508F10099
:100308007408F000080083120313881C8C298D29B7
:100318009A29881008102808013E84000A128A11B8
:10032800A7210A128A1187000814A6290810881024
:100338002A08013E84000A128A11A7210A128A118A
:1003480087008814080001308A000408840A82079C
:1003580000343F3406345B344F3466346D347D34B6
:1003680007347F346F3477347C3439345E347934ED
:020378007134DE
:04400E00D4E0FFFFFC
:00000001FF
