:020000040000FA
:060000000A128A110C280F
:10000800FE00030EF5000A08F6000A128A115628A7
:100018000A128A110F28F001F101F201F301F4012B
:1000280083010A128A111828831603138501860191
:10003800061486148701880183160317880189012D
:100048008B018B178B150B108B160B118316031353
:100058008101011563308312031381008316031392
:1000680096011614961483120313850186018701DD
:1000780088018814F001F1017403031D4428452800
:100088004E280030F700F8000A128A118F200A1251
:100098008A11F401700883120313850040280A129C
:1000A8008A110C288B138B118B120B1D5C285D2871
:1000B80063286330831203138100F401F40A0B1CD4
:1000C80066286728732883120313861C6C286D28FA
:1000D80073280130F0070318F10A0030F1070B1CF0
:1000E80076287728832883120313061C7C287D280A
:1000F80083280130F0020030031CF103F1028B1752
:100108008B150B108B160B1176088A00750E830061
:10011800FE0E7E0E090083120313881C942895286E
:10012800A228881008107708013E84000A128A1154
:10013800AF200A128A1187000814AE280810881008
:100148007708023E84000A128A11AF200A128A1127
:1001580087008814080000308A000408840A82078F
:1001680000343F3406345B344F3466346D347D34A8
:1001780007347F346F3477347C3439345E347934DF
:020188007134D0
:04400E00D4E0FFFFFC
:00000001FF
