:020000040000FA
:060000000A128A110C280F
:10000800FE00030EF1000A08F2000A128A115F28A6
:100018000A128A110F28F30183010A128A1114287F
:100028008316031385018601061486148701880147
:1000380083160317880189018B018B178B150B1009
:100048008B160B11831603138101043083120313DB
:100058008100831603139601161496148312031352
:1000680085018601870188017303031D3C283D280B
:10007800382883120313081C422843284F280810E5
:1000880088100B3084000A128A1192200A128A11F1
:10009800870088145A28881008100C3084000A1227
:1000A8008A1192200A128A1187000814F30138284D
:1000B8000A128A110C288B138B118B120B1D6528C1
:1000C80066286C280430831203138100F301F30AB5
:1000D8000B1C6F2870287A2883120313061C7528B6
:1000E80076287A280130F000700885070B1C7D28D7
:1000F8007E28862883120313861C83288428862852
:10010800013085028B178B150B108B160B1172089B
:100118008A00710E8300FE0E7E0E090000308A00F0
:100128000408840A820700343F3406345B344F34B1
:1001380066346D347D3407347F346F3477347C34DF
:0801480039345E34793471345E
:04400E00D4E0FFFFFC
:00000001FF
