:020000040000FA
:060000000A128A110C280F
:10000800FE00030EF1000A08F2000A128A115428B1
:100018000A128A110F28F501F601F701F801830188
:100028000A128A11172883160313850186010614FC
:1000380086148701880183160317880189018B01BB
:100048008B178B150B108B160B118316031381015D
:10005800011563308312031381008316031396017D
:1000680016149614831203138501860187018801EB
:100078008814F7017803031D422843284C280030D0
:10008800F300F4000A128A1187200A128A11F80173
:1000980077088312031385003E280A128A110C2858
:1000A8008B138B118B120B1D5A285B286128633028
:1000B800831203138100F801F80A0B1C64286528D1
:1000C8006F2883120313861C6A286B286F28013057
:1000D800F0007008F7070B1C722873287B2883121E
:1000E8000313061C782879287B280130F7028B1720
:1000F8008B150B108B160B1172088A00710E83007A
:10010800FE0E7E0E090083120313881C8C288D288E
:100118009A28881008107308013E84000A128A1170
:10012800A7200A128A1187000814A6280810881028
:100138007308023E84000A128A11A7200A128A1143
:1001480087008814080000308A000408840A82079F
:1001580000343F3406345B344F3466346D347D34B8
:1001680007347F346F3477347C3439345E347934EF
:020178007134E0
:04400E00D4E0FFFFFC
:00000001FF
