:020000040000FA
:060000000A128A110C280F
:10000800FE00030EF1000A08F2000A128A114C28B9
:100018000A128A110F28F501F601F70183010A1265
:100028008A1116288316031385018601061486147F
:100038008701880183160317880189018B018B17B3
:100048008B150B108B160B118316031381010430CB
:100058008312031381008316031396011614961452
:100068008312031385018601870188017703031D25
:100078003E283F283A280030F300F4000A128A117B
:100088007F200A128A11F7013A280A128A110C28CD
:100098008B138B118B120B1D5228532859280430AF
:1000A800831203138100F701F70A0B1C5C285D28F3
:1000B800672883120313061C622863286728013007
:1000C800F000700885070B1C6A286B2873288312B8
:1000D8000313861C702871287328013085028B173A
:1000E8008B150B108B160B1172088A00710E83008A
:1000F800FE0E7E0E090083120313081C842885282F
:100108009228081088107308013E84000A128A1188
:100118009F200A128A11870088149E2888100810C8
:100128007308013E84000A128A119F200A128A115C
:1001380087000814080000308A000408840A82072F
:1001480000343F3406345B344F3466346D347D34C8
:1001580007347F346F3477347C3439345E347934FF
:020168007134F0
:04400E00D4E0FFFFFC
:00000001FF
