:020000040000FA
:060000000A128A110C280F
:10000800FE00030EF1000A08F2000A128A111328F2
:100018000A128A110F2883010A128A1139288B13B0
:100028008B110B1C18281928232883120313061C6C
:100038001E281F2823280130F000700885070B1C94
:10004800262827282F2883120313861C2C282D28BE
:100058002F28013085028B178B150B1072088A0028
:10006800710E8300FE0E7E0E0900831603138501B0
:1000780086010614861483160317880189018B01EB
:100088008B178B150B1083160313960116149614F1
:10009800831203138501860150280A128A110C283D
:04400E00D4E0FFFFFC
:00000001FF
